{"abi":[{"type":"function","name":"donorCount","inputs":[],"outputs":[{"name":"","type":"uint256","internalType":"uint256"}],"stateMutability":"view"},{"type":"function","name":"donorExistsCheck","inputs":[{"name":"_donorID","type":"uint256","internalType":"uint256"}],"outputs":[{"name":"","type":"bool","internalType":"bool"}],"stateMutability":"view"},{"type":"function","name":"getDonorByID","inputs":[{"name":"_donorID","type":"uint256","internalType":"uint256"}],"outputs":[{"name":"","type":"bytes","internalType":"bytes"}],"stateMutability":"view"},{"type":"function","name":"registerDonor","inputs":[{"name":"_donorID","type":"uint256","internalType":"uint256"},{"name":"_name","type":"string","internalType":"string"},{"name":"_bloodType","type":"string","internalType":"string"}],"outputs":[],"stateMutability":"nonpayable"},{"type":"event","name":"DonorRegistered","inputs":[{"name":"donorID","type":"uint256","indexed":false,"internalType":"uint256"},{"name":"name","type":"string","indexed":false,"internalType":"string"},{"name":"bloodType","type":"string","indexed":false,"internalType":"string"}],"anonymous":false}],"bytecode":{"object":"0x6080604052348015600e575f80fd5b50610da88061001c5f395ff3fe608060405234801561000f575f80fd5b506004361061004a575f3560e01c80634636845f1461004e578063993ca5a01461007e578063c407670f146100ae578063da5f9e9f146100cc575b5f80fd5b6100686004803603810190610063919061046b565b6100e8565b60405161007591906104b0565b60405180910390f35b6100986004803603810190610093919061046b565b61010e565b6040516100a59190610539565b60405180910390f35b6100b66101a3565b6040516100c39190610568565b60405180910390f35b6100e660048036038101906100e191906105e2565b6101a9565b005b5f60015f8381526020019081526020015f205f9054906101000a900460ff169050919050565b606060015f8381526020019081526020015f205f9054906101000a900460ff1661016d576040517f08c379a0000000000000000000000000000000000000000000000000000000008152600401610164906106cd565b60405180910390fd5b5f808381526020019081526020015f2060405160200161018d919061082c565b6040516020818303038152906040529050919050565b60025481565b5f84849050116101ee576040517f08c379a00000000000000000000000000000000000000000000000000000000081526004016101e590610896565b60405180910390fd5b5f8282905011610233576040517f08c379a000000000000000000000000000000000000000000000000000000000815260040161022a906108fe565b60405180910390fd5b5f8511610275576040517f08c379a000000000000000000000000000000000000000000000000000000000815260040161026c90610966565b60405180910390fd5b60015f8681526020019081526020015f205f9054906101000a900460ff16156102d3576040517f08c379a00000000000000000000000000000000000000000000000000000000081526004016102ca906109ce565b60405180910390fd5b604051806040016040528085858080601f0160208091040260200160405190810160405280939291908181526020018383808284375f81840152601f19601f82011690508083019250505050505050815260200183838080601f0160208091040260200160405190810160405280939291908181526020018383808284375f81840152601f19601f820116905080830192505050505050508152505f808781526020019081526020015f205f820151815f0190816103919190610bae565b5060208201518160010190816103a79190610bae565b509050506001805f8781526020019081526020015f205f6101000a81548160ff02191690831515021790555060025f8154809291906103e590610caa565b91905055507f13f1476aa61e2107f46e6bc435eb6d18b382646af69e8591ea83e348641b6e7c8585858585604051610421959493929190610d2b565b60405180910390a15050505050565b5f80fd5b5f80fd5b5f819050919050565b61044a81610438565b8114610454575f80fd5b50565b5f8135905061046581610441565b92915050565b5f602082840312156104805761047f610430565b5b5f61048d84828501610457565b91505092915050565b5f8115159050919050565b6104aa81610496565b82525050565b5f6020820190506104c35f8301846104a1565b92915050565b5f81519050919050565b5f82825260208201905092915050565b8281835e5f83830152505050565b5f601f19601f8301169050919050565b5f61050b826104c9565b61051581856104d3565b93506105258185602086016104e3565b61052e816104f1565b840191505092915050565b5f6020820190508181035f8301526105518184610501565b905092915050565b61056281610438565b82525050565b5f60208201905061057b5f830184610559565b92915050565b5f80fd5b5f80fd5b5f80fd5b5f8083601f8401126105a2576105a1610581565b5b8235905067ffffffffffffffff8111156105bf576105be610585565b5b6020830191508360018202830111156105db576105da610589565b5b9250929050565b5f805f805f606086880312156105fb576105fa610430565b5b5f61060888828901610457565b955050602086013567ffffffffffffffff81111561062957610628610434565b5b6106358882890161058d565b9450945050604086013567ffffffffffffffff81111561065857610657610434565b5b6106648882890161058d565b92509250509295509295909350565b5f82825260208201905092915050565b7f446f6e6f72206e6f7420666f756e6400000000000000000000000000000000005f82015250565b5f6106b7600f83610673565b91506106c282610683565b602082019050919050565b5f6020820190508181035f8301526106e4816106ab565b9050919050565b7f4e487b71000000000000000000000000000000000000000000000000000000005f52602260045260245ffd5b5f600282049050600182168061072f57607f821691505b602082108103610742576107416106eb565b5b50919050565b5f82825260208201905092915050565b5f819050815f5260205f209050919050565b5f815461077681610718565b6107808186610748565b9450600182165f811461079a57600181146107b0576107e2565b60ff1983168652811515602002860193506107e2565b6107b985610758565b5f5b838110156107da578154818901526001820191506020810190506107bb565b808801955050505b50505092915050565b5f604083015f8084018583035f870152610805838261076a565b92505060018401858303602087015261081e838261076a565b925050819250505092915050565b5f6020820190508181035f83015261084481846107eb565b905092915050565b7f4e616d652063616e6e6f7420626520656d7074790000000000000000000000005f82015250565b5f610880601483610673565b915061088b8261084c565b602082019050919050565b5f6020820190508181035f8301526108ad81610874565b9050919050565b7f426c6f6f6420747970652063616e6e6f7420626520656d7074790000000000005f82015250565b5f6108e8601a83610673565b91506108f3826108b4565b602082019050919050565b5f6020820190508181035f830152610915816108dc565b9050919050565b7f496e76616c696420646f6e6f72204944000000000000000000000000000000005f82015250565b5f610950601083610673565b915061095b8261091c565b602082019050919050565b5f6020820190508181035f83015261097d81610944565b9050919050565b7f446f6e6f7220616c7265616479207265676973746572656400000000000000005f82015250565b5f6109b8601883610673565b91506109c382610984565b602082019050919050565b5f6020820190508181035f8301526109e5816109ac565b9050919050565b5f81519050919050565b7f4e487b71000000000000000000000000000000000000000000000000000000005f52604160045260245ffd5b5f6020601f8301049050919050565b5f82821b905092915050565b5f60088302610a6d7fffffffffffffffffffffffffffffffffffffffffffffffffffffffffffffffff82610a32565b610a778683610a32565b95508019841693508086168417925050509392505050565b5f819050919050565b5f610ab2610aad610aa884610438565b610a8f565b610438565b9050919050565b5f819050919050565b610acb83610a98565b610adf610ad782610ab9565b848454610a3e565b825550505050565b5f90565b610af3610ae7565b610afe818484610ac2565b505050565b5b81811015610b2157610b165f82610aeb565b600181019050610b04565b5050565b601f821115610b6657610b3781610758565b610b4084610a23565b81016020851015610b4f578190505b610b63610b5b85610a23565b830182610b03565b50505b505050565b5f82821c905092915050565b5f610b865f1984600802610b6b565b1980831691505092915050565b5f610b9e8383610b77565b9150826002028217905092915050565b610bb7826109ec565b67ffffffffffffffff811115610bd057610bcf6109f6565b5b610bda8254610718565b610be5828285610b25565b5f60209050601f831160018114610c16575f8415610c04578287015190505b610c0e8582610b93565b865550610c75565b601f198416610c2486610758565b5f5b82811015610c4b57848901518255600182019150602085019450602081019050610c26565b86831015610c685784890151610c64601f891682610b77565b8355505b6001600288020188555050505b505050505050565b7f4e487b71000000000000000000000000000000000000000000000000000000005f52601160045260245ffd5b5f610cb482610438565b91507fffffffffffffffffffffffffffffffffffffffffffffffffffffffffffffffff8203610ce657610ce5610c7d565b5b600182019050919050565b828183375f83830152505050565b5f610d0a8385610673565b9350610d17838584610cf1565b610d20836104f1565b840190509392505050565b5f606082019050610d3e5f830188610559565b8181036020830152610d51818688610cff565b90508181036040830152610d66818486610cff565b9050969550505050505056fea264697066735822122012b7be766c2a0ff0a2b8cdda3f9355bfabed2be05fb7d00f42e6e1f7ecb9db7164736f6c634300081a0033","linkReferences":{}},"methodIdentifiers":{"donorCount()":"c407670f","donorExistsCheck(uint256)":"4636845f","getDonorByID(uint256)":"993ca5a0","registerDonor(uint256,string,string)":"da5f9e9f"},"id":20}